:100000000C942A000C9447000C9447000C94470071
:100010000C9447000C9447000C9447000C94470044
:100020000C9447000C9447000C9447000C94470034
:100030000C9447000C9447000C9447000C94470024
:100040000C9447000C9447000C9447000C94470014
:100050000C94470011241FBECFE5D4E0DEBFCDBF16
:1000600010E0A0E6B0E0E4EFF2E002C005900D92EF
:10007000A036B107D9F710E0A0E6B0E001C01D92AC
:10008000A036B107E1F70E943C010C9478010C9472
:1000900000009C01207F307022BB22B32C5F22BB6A
:1000A0004AEF50E0FA013197F1F722B3245022BB16
:1000B00024E0880F991F2A95E1F7907082BB82B3E4
:1000C0008C5F82BBCA010197F1F782B3845082BB77
:1000D000CA010197F1F7089582E090E00E9449007B
:1000E00088E290E00E94490086E090E00E9449008A
:1000F0008CE090E00E94490008959C01207F3070C0
:1001000022BB22B32B5F22BB4AEF50E0FA013197AA
:10011000F1F722B3245022BB34E0880F991F3A959F
:10012000E1F7907082BB82B38B5F82BBCA010197FB
:10013000F1F782B3845082BBCA010197F1F70895A9
:1001400088E590E00E94490081E090E00E947D00F7
:1001500081E090E00E947D0081E090E00E947D00BF
:1001600081E090E00E947D0082E090E00E947D00AE
:1001700084E090E00E947D0088E190E00E947D0094
:10018000089580E590E00E94490080E190E00E949F
:100190007D0080E190E00E947D0080E190E00E947F
:1001A0007D0080E190E00E947D0088E090E00E9468
:1001B0007D0084E090E00E947D0083E090E00E945A
:1001C0007D00089588E490E00E94490088E190E075
:1001D0000E947D0084E090E00E947D0082E090E03B
:1001E0000E947D0081E090E00E947D0081E090E02F
:1001F0000E947D0081E090E00E947D0081E090E01F
:100200000E947D00089580E490E00E94490083E010
:1002100090E00E947D0084E090E00E947D0088E0F4
:1002200090E00E947D0080E190E00E947D0080E1EE
:1002300090E00E947D0080E190E00E947D0080E1DE
:1002400090E00E947D00089582BB82B38C5F82BBE8
:100250008AEF90E00197F1F782B3845082BB089552
:1002600082BB82B38B5F82BB8AEF90E00197F1F78C
:1002700082B3845082BB08950F931F93CF93DF9373
:100280008FEF81BB0E946C000E9403010E94E2007C
:100290000E94C1000E94A00081E090E00E944900FD
:1002A00004EC19E08CE190E00E944900C0E8D0E045
:1002B000CE010E94490080E090E00E947D0081E034
:1002C00090E00E947D00CE018E5B9F4F0E9449000E
:1002D00082E090E00E947D0083E090E00E947D003B
:1002E000C8010197F1F72496C83AD10509F7DACF8A
:0402F000F894FFCFB0
:00000001FF
