:100000000C942A000C9447000C9447000C94470071
:100010000C9447000C9447000C9447000C94470044
:100020000C9447000C9447000C9447000C94470034
:100030000C9447000C9447000C9447000C94470024
:100040000C9447000C9447000C9447000C94470014
:100050000C94470011241FBECFE5D4E0DEBFCDBF16
:1000600010E0A0E6B0E0EEE4F4E002C005900D92EE
:10007000A03EB107D9F710E0A0EEB0E001C01D929C
:10008000A03EB107E1F70E94EA000C9425020C940F
:10009000000085BB85B38C5F85BB8AEF90E001973C
:1000A000F1F785B3845085BB08950F931F938C019E
:1000B000807F90700E94490084E0000F111F8A9594
:1000C000E1F7C80190700E9449008AEF90E0019723
:1000D000F1F71F910F91089582E090E00E94550082
:1000E00088E290E00E94550086E090E00E94550072
:1000F0008CE090E00E945500089585BB85B38B5F2E
:1001000085BB8AEF90E00197F1F785B3845085BBFA
:1001100008950F931F938C01807F90700E947D0043
:1001200094E0000F111F9A95E1F7C80190700E94AA
:100130007D008AEF90E00197F1F71F910F910895EC
:100140000F931F93CF93DF93182F092FCB010E949A
:100150005500212F302FC901EC0103C090E00E940F
:10016000890089918823D1F7DF91CF911F910F9159
:100170000895CF93DF93EC01CB010E9455002097A7
:10018000C9F480E390E00E948900C0E0D0E012C092
:1001900084E090E00E945500CE016AE070E00E9489
:1001A0001102C0960E948900CE016AE070E00E94B0
:1001B0001102EB01209761F7DF91CF91089581E063
:1001C00090E00E94550060E870E080E690E00E94B8
:1001D000A000FFCF5F926F927F928F929F92AF921B
:1001E000BF92CF92DF92EF92FF920F931F93CF9324
:1001F000DF9380EF81BB17BA8FEF84BB0E946C0046
:1002000081E090E00E94550006EA902E18E9E12E68
:100210001AE3F12EB4ECAB2EB9E0BB2E81E090E0F6
:100220000E94550062E870E080919D0090919E00D0
:100230000E94A00086B38330E9F786B38330E9F3E8
:10024000A1E0CA2ED12C82E090E002C0C601680174
:1002500024E0C216D10424F0F1E0CF2ED12C06C048
:100260001C141D041CF0E3E0CE2ED12CC816D906B8
:10027000A1F081E090E00E945500F601EE0FFF1F13
:10028000E356FF4F63E870E0808191810E94A000F7
:1002900060E870E0C6010E94B90086B3833009F0BF
:1002A0006EC086B38330E9F3C5010197F1F783E0AF
:1002B000C816D10409F4B2CFEE24FF2460EF562E05
:1002C00059E1652E712C40E5842E43EC942E01C03B
:1002D000750151BA81E090E00E94550060E870E03D
:1002E00088E690E00E94A000C0E0D0E000E010E0CE
:1002F00080B390E08E159F05D9F380B3A82EBB2460
:100300000115110541F481E090E00E94550080E85C
:1003100090E00E94550000581F4FB801C5010E948F
:10032000B900CE0133E0880F991F3A95E1F7CC0F61
:10033000DD1FC80FD91FCA0DDB1D0F5710407501F7
:1003400004301105A9F6C25DD44039F4C6010E94FB
:10035000DF00C4010197F1F7BBCF81E090E00E947C
:10036000550060E870E084E790E00E94A00088E813
:1003700093E1F3013197F1F70197D9F7A9CF86B34C
:10038000813029F520E030E086B38130E9F386B38F
:100390008230A1F486B38230E9F3C0E0D0E08AE194
:1003A00090E00E945500C7010197F1F72196CE30E9
:1003B000D105A9F786010F5F1F4F0AC02F5F3F4F7E
:1003C000892D8A95F1F783E0283E3807E9F6860102
:1003D00086B3823009F03ACF20E030E086B3823035
:1003E000E9F386B3813099F486B38130E9F3C0E054
:1003F000D0E08CE190E00E945500C7010197F1F731
:100400002196CE30D105A9F7015010401FCF2F5FA4
:100410003F4F892D8A95F1F783E0283E3807F1F6A2
:1004200015CFAA1BBB1B51E107C0AA1FBB1FA617F4
:10043000B70710F0A61BB70B881F991F5A95A9F78D
:0E04400080959095BC01CD010895F894FFCFF2
:10044E0057656C636F6D6500456E7465722050491B
:10045E004E5F5F00496E636F727265637400536D19
:10046E006172745F42656500574620426F74004D9D
:10047E0061746820426F74004261636B007E008875
:10048E00008F009800004469676974616C5F436C6B
:10049E006F636B0053746F705F5761746368004CC9
:1004AE00444D5F47616D65005374617274004D7504
:1004BE0073696300A500A600B400BF00C800CE009B
:00000001FF
