:100000000C942A000C9447000C9447000C94470071
:100010000C9447000C9447000C9447000C94470044
:100020000C9447000C9447000C9447000C94470034
:100030000C9447000C9447000C9447000C94470024
:100040000C9447000C9447000C9447000C94470014
:100050000C94470011241FBECFE5D4E0DEBFCDBF16
:1000600010E0A0E6B0E0E8E5F2E002C005900D92F5
:10007000A036B107D9F710E0A0E6B0E001C01D92AC
:10008000A036B107E1F70E94B8000C942A010C9445
:1000900000009C01207F307022BB22B32C5F22BB6A
:1000A0004AEF50E0FA013197F1F722B3245022BB16
:1000B00024E0880F991F2A95E1F7907082BB82B3E4
:1000C0008C5F82BBCA010197F1F782B3845082BB77
:1000D000CA010197F1F7089582E090E00E9449007B
:1000E00088E290E00E94490086E090E00E9449008A
:1000F0008CE090E00E94490008959C01207F3070C0
:1001000022BB22B32B5F22BB4AEF50E0FA013197AA
:10011000F1F722B3245022BB34E0880F991F3A959F
:10012000E1F7907082BB82B38B5F82BBCA010197FB
:10013000F1F782B3845082BBCA010197F1F70895A9
:1001400082BB82B38C5F82BB8AEF90E00197F1F7AC
:1001500082B3845082BB089582BB82B38B5F82BB23
:100160008AEF90E00197F1F782B3845082BB089543
:10017000DF92EF92FF920F931F93CF93DF938FEF56
:1001800081BB0E946C0081E090E00E9449000BE777
:1001900010E059E1E52EF12C43E0D42E83E890E005
:1001A0000E94490080E197E2F7013197F1F701974A
:1001B000D9F7E80184E090E00E944900CE016AE0AE
:1001C00070E00E9403019C01CE016AE070E00E9491
:1001D0000301EB01C901C0960E947D008D2D8A9517
:1001E000F1F71C161D0634F30F5F1F4F093C110574
:1001F000A9F680E090E0DF91CF911F910F91FF90E1
:10020000EF90DF90089597FB092E07260AD077FD1F
:1002100004D00CD006D000201AF4709561957F4F61
:100220000895F6F7909581959F4F0895AA1BBB1BE3
:1002300051E107C0AA1FBB1FA617B70710F0A61BE6
:10024000B70B881F991F5A95A9F780959095BC0107
:08025000CD010895F894FFCFE1
:00000001FF
