:100000000C942A000C9447000C9447000C94470071
:100010000C9447000C9447000C9447000C94470044
:100020000C9447000C9447000C9447000C94470034
:100030000C9447000C9447000C9447000C94470024
:100040000C9447000C9447000C9447000C94470014
:100050000C94470011241FBECFE5D4E0DEBFCDBF16
:1000600010E0A0E6B0E0E2ECF2E002C005900D92F4
:10007000A836B107D9F710E0A8E6B0E001C01D929C
:10008000A836B107E1F70E94B9000C945F010C9407
:10009000000082BB82B38C5F82BB8AEF90E0019745
:1000A000F1F782B3845082BB08950F931F938C01A4
:1000B000807F90700E94490084E0000F111F8A9594
:1000C000E1F7C80190700E9449008AEF90E0019723
:1000D000F1F71F910F91089582E090E00E94550082
:1000E00088E290E00E94550086E090E00E94550072
:1000F0008CE090E00E945500089582BB82B38B5F34
:1001000082BB8AEF90E00197F1F782B3845082BB03
:1001100008950F931F938C01807F90700E947D0043
:1001200094E0000F111F9A95E1F7C80190700E94AA
:100130007D008AEF90E00197F1F71F910F910895EC
:100140000F931F93CF93DF93182F092FCB010E949A
:100150005500212F302FC901EC0103C090E00E940F
:10016000890089918823D1F7DF91CF911F910F9159
:1001700008952F923F924F925F926F927F928F924B
:100180009F92AF92BF92CF92DF92EF92FF920F9326
:100190001F93CF93DF938FEF81BB0E946C0081E0B0
:1001A00090E00E94550000E010E08824992460E867
:1001B000A62EB12C50E1252E312C49E1642E712C54
:1001C00037E0432E512C03C00894A11CB11C0A3007
:1001D00011058CF481E090E00E945500B50180E6A5
:1001E00090E00E94A00080E197E2F3013197F1F7DF
:1001F0000197D9F725C00131110514F581E090E090
:100200000E945500C5010E94550020E6E22E20E024
:10021000F22EC0E0D0E06101C01AD10A07C0F70198
:1002200081917F0190E00E9489002196CC15DD0527
:10023000B4F380E197E2F3013197F1F70197D9F731
:100240000F5F1F4F013111050CF4BECFF7E08F1681
:1002500091049CF081E090E00E945500B801605844
:100260007F4F80E690E00E94A00080E197E2F301DA
:100270003197F1F70197D9F71EC081E090E00E9415
:100280005500C80180549F4F0E945500E201C819D3
:10029000D909FE01E05AFF4F808190E00E94890059
:1002A00021971C161D06ACF380E197E2F30131970C
:1002B000F1F70197D9F70894811C911C85CFF89428
:0202C000FFCF6E
:0802C2004D616E736F6F720055
:00000001FF
