:100000000C942A000C9447000C9447000C94470071
:100010000C9447000C9447000C9447000C94470044
:100020000C9447000C9447000C9447000C94470034
:100030000C9447000C9447000C9447000C94470024
:100040000C9447000C9447000C9447000C94470014
:100050000C94470011241FBECFE5D4E0DEBFCDBF16
:1000600010E0A0E6B0E0EAE7F2E002C005900D92F1
:10007000A036B107D9F710E0A0E6B0E001C01D92AC
:10008000A036B107E1F70E94FB000C943B010C94F1
:1000900000009C01207F307022BB22B32C5F22BB6A
:1000A0004AEF50E0FA013197F1F722B3245022BB16
:1000B00024E0880F991F2A95E1F7907082BB82B3E4
:1000C0008C5F82BBCA010197F1F782B3845082BB77
:1000D000CA010197F1F7089582E090E00E9449007B
:1000E00088E290E00E94490086E090E00E9449008A
:1000F0008CE090E00E94490008959C01207F3070C0
:1001000022BB22B32B5F22BB4AEF50E0FA013197AA
:10011000F1F722B3245022BB34E0880F991F3A959F
:10012000E1F7907082BB82B38B5F82BBCA010197FB
:10013000F1F782B3845082BBCA010197F1F70895A9
:1001400082BB82B38C5F82BB8AEF90E00197F1F7AC
:1001500082B3845082BB089582BB82B38B5F82BB23
:100160008AEF90E00197F1F782B3845082BB089543
:10017000CF93DF93EC0180E490E00E94490084E09B
:1001800090E00E947D008EE090E00E947D008EE075
:1001900090E00E947D008FE190E00E947D0084E06D
:1001A00090E00E947D00C130D10519F0C330D10527
:1001B00039F484E090E00E947D0084E090E012C079
:1001C000C230D10539F488E090E00E947D0080E1E2
:1001D00090E008C0249741F482E090E00E947D0006
:1001E00081E090E00E947D0080E090E00E947D0030
:1001F000DF91CF910895EF92FF920F931F93CF93CA
:10020000DF938FEF81BB0E946C0081E090E00E9441
:100210004900C1E0D0E048EAE42E41E6F42EC130C6
:10022000D10519F0C330D10511F4CE010EC0C23092
:10023000D10519F482E090E008C0C430D10519F06E
:10024000C1E0D0E004C084E090E00E94B80000E08B
:1002500010E084E890E00E94490080E090E00E9475
:100260007D00C7010197F1F70F5F1F4F0A3011059D
:0A02700081F72196D4CFF894FFCF58
:00000001FF
