:100000000C942A000C9447000C9447000C94470071
:100010000C9447000C9447000C9447000C94470044
:100020000C9447000C9447000C9447000C94470034
:100030000C9447000C9447000C9447000C94470024
:100040000C9447000C9447000C9447000C94470014
:100050000C94470011241FBECFE5D4E0DEBFCDBF16
:1000600010E0A0E6B0E0ECE6F4E002C005900D92EE
:10007000A036B107D9F710E0A0E6B0E001C01D92AC
:10008000A036B107E1F70E9400010C9434020C94F1
:10009000000082BB82B38C5F82BB8AEF90E0019745
:1000A000F1F782B3845082BB08950F931F938C01A4
:1000B000807F90700E94490084E0000F111F8A9594
:1000C000E1F7C80190700E9449008AEF90E0019723
:1000D000F1F71F910F91089582E090E00E94550082
:1000E00088E290E00E94550086E090E00E94550072
:1000F0008CE090E00E945500089582BB82B38B5F34
:1001000082BB8AEF90E00197F1F782B3845082BB03
:1001100008950F931F938C01807F90700E947D0043
:1001200094E0000F111F9A95E1F7C80190700E94AA
:100130007D008AEF90E00197F1F71F910F910895EC
:100140000F931F93CF93DF93182F092FCB010E949A
:100150005500212F302FC901EC0103C090E00E940F
:10016000890089918823D1F7DF91CF911F910F9159
:100170000895EF92FF920F931F937C010027F7FCE5
:100180000095102FCB010E945500E114F1040105E8
:10019000110511F580E390E00E9489001DC084E004
:1001A00090E00E945500C801B7012AE030E040E02D
:1001B00050E00E94F701DC01CB01C0960E9489004B
:1001C000C801B7012AE030E040E050E00E94F701AA
:1001D000C901DA017C018D011E141F0410061106ED
:1001E000F4F21F910F91FF90EF900895806487B90A
:1001F00087ED86B9349BFECF24B135B1C90108958E
:100200006F927F928F929F92AF92BF92CF92DF9226
:10021000EF92FF920F931F93CF93DF938FEF87BBE4
:1002200081BB0E946C0081E090E00E945500EE24AA
:10023000FF2474ECC72E79E0D72E61E4762E57EDBB
:10024000652E49E1842E912CAA24BB2477B866B888
:10025000349BFECF04B115B1C80185569040893555
:10026000910558F46FEC70E081E090E00E94B900D5
:10027000C6010197F1F7C1E0D0E0C8018F5B904063
:100280008935910558F46FEC70E082E090E00E94AF
:10029000B900C6010197F1F7C2E0D0E0C801895169
:1002A00091408935910558F46FEC70E083E090E05F
:1002B0000E94B900C6010197F1F7C3E0D0E0C80180
:1002C000835791408935910558F46FEC70E084E0D4
:1002D00090E00E94B900C6010197F1F7C4E0D0E0B8
:1002E000C8018D5C91408935910558F46FEC70E040
:1002F00085E090E00E94B900C6010197F1F7C5E0E2
:10030000D0E0C801875292408935910558F46FECCE
:1003100070E086E090E00E94B900C6010197F1F715
:10032000C6E0D0E0C801815892408935910558F463
:100330006FEC70E087E090E00E94B900C601019781
:10034000F1F7C7E0D0E0C8018B5D92408935910597
:1003500058F46FEC70E088E090E00E94B900C601AC
:100360000197F1F7C8E0D0E0C80185539340893583
:10037000910558F46FEC70E089E090E00E94B900BC
:10038000C6010197F1F7C9E0D0E00F5813405CF0C7
:100390006FEC70E080E090E00E94B900C601019728
:1003A000F1F7C0E0D0E0C6010197F1F70894A11C75
:1003B000B11C84E6A816B10409F048CFC70133E0A8
:1003C000880F991F3A95E1F7EE0CFF1CE80EF91E15
:1003D000EC0EFD1E6FE870E0C7010E94B90088E8CE
:1003E00093E1F4013197F1F70197D9F72DCF97FBFE
:1003F000092E05260ED057FD04D014D00AD0001CBB
:1004000038F450954095309521953F4F4F4F5F4FB1
:100410000895F6F790958095709561957F4F8F4F71
:100420009F4F0895A1E21A2EAA1BBB1BFD010DC010
:10043000AA1FBB1FEE1FFF1FA217B307E407F50794
:1004400020F0A21BB30BE40BF50B661F771F881F70
:10045000991F1A9469F760957095809590959B0106
:0C046000AC01BD01CF010895F894FFCF5E
:00000001FF
