:100000000C942A000C9447000C9447000C94470071
:100010000C9447000C9447000C9447000C94470044
:100020000C9447000C9447000C9447000C94470034
:100030000C9447000C9447000C9447000C94470024
:100040000C9447000C9447000C9447000C94470014
:100050000C94470011241FBECFE5D4E0DEBFCDBF16
:1000600010E0A0E6B0E0EEEEF0E002C005900D92E8
:10007000A036B107D9F710E0A0E6B0E001C01D92AC
:10008000A036B107E1F70E9449000C9475000C946A
:1000900000008FEF87BB8CEF8ABB22E030E07AE074
:1000A00040E553EC65E0E4E089B3813041F420FDA4
:1000B00006C078BB2F5F3F4FCA010197F1F789B3A4
:1000C000823041F420FF06C068BB2F5F3F4FCA015A
:1000D0000197F1F789B3833011F4E8BBE5CF20FF36
:0E00E00068BB20FFE1CF78BBDFCFF894FFCFE5
:00000001FF
