:100000000C942A000C9447000C9447000C94470071
:100010000C9447000C9447000C9447000C94470044
:100020000C9447000C9447000C9447000C94470034
:100030000C9447000C9447000C9447000C94470024
:100040000C9447000C9447000C9447000C94470014
:100050000C94470011241FBECFE5D4E0DEBFCDBF16
:1000600010E0A0E6B0E0E2ECF0E002C005900D92F6
:10007000A036B107D9F710E0A0E6B0E001C01D92AC
:10008000A036B107E1F70E9449000C945F000C9480
:1000900000008FEF87BB81BB80EF8ABB8FE08BBBFB
:1000A0008EE082BB41E024EC39E089B38E3029F444
:1000B00048BBC9010197F1F7F8CF18BAF6CFF89409
:0200C000FFCF70
:00000001FF
