:100000000C942A000C9447000C9447000C94470071
:100010000C9447000C9447000C9447000C94470044
:100020000C9447000C9447000C9447000C94470034
:100030000C9447000C9447000C9447000C94470024
:100040000C9447000C9447000C9447000C94470014
:100050000C94470011241FBECFE5D4E0DEBFCDBF16
:1000600011E0A0E6B0E0E6E9FEE002C005900D92E6
:10007000AE36B107D9F711E0AEE6B1E001C01D928E
:10008000AE36B107E1F70E94DF000C9449070C94EB
:10009000000085BB85B38C5F85BB8AEF90E001973C
:1000A000F1F785B3845085BB08950F931F938C019E
:1000B000807F90700E94490084E0000F111F8A9594
:1000C000E1F7C80190700E9449008AEF90E0019723
:1000D000F1F71F910F91089582E090E00E94550082
:1000E00088E290E00E94550086E090E00E94550072
:1000F0008CE090E00E945500089585BB85B38B5F2E
:1001000085BB8AEF90E00197F1F785B3845085BBFA
:1001100008950F931F938C01807F90700E947D0043
:1001200094E0000F111F9A95E1F7C80190700E94AA
:100130007D008AEF90E00197F1F71F910F910895EC
:100140000F931F93CF93DF93182F092FCB010E949A
:100150005500212F302FC901EC0103C090E00E940F
:10016000890089918823D1F7DF91CF911F910F9159
:100170000895CF93DF93EC01CB010E9455002097A7
:10018000C9F480E390E00E948900C0E0D0E012C092
:1001900084E090E00E945500CE016AE070E00E9489
:1001A0003507C0960E948900CE016AE070E00E9487
:1001B0003507EB01209761F7DF91CF9108952F92DA
:1001C0003F924F925F926F927F928F929F92AF92E7
:1001D000BF92CF92DF92EF92FF920F931F93DF9324
:1001E000CF93CDB7DEB7C455D0400FB6F894DEBF7D
:1001F0000FBECDBF8FEF84BB0E946C0081E090E00A
:100200000E94550019821A821B821C82FE013596BB
:100210008CE0DF011D928A95E9F7E1E08E2E912CAA
:100220007E010894E11CF11C75E1272E312C2C0E67
:100230003D1EFE01F3966196FFAFEEAF619761E15F
:10024000A62EB12CAC0EBD1E5CE4652E5DE1752EB4
:1002500044EC442E49E0542E3FE2C32ED12CCC0E68
:10026000DD1ECE018F5B9F4F65969FAF8EAF65976A
:10027000DE015F962F96BFAFAEAF2F97FE01FD96C2
:100280006396FFAFEEAF639760E870E0C7010E942E
:10029000A00089B3823031F489B38230E9F3089445
:1002A000811C911CF0E18F16910424F021E0822E34
:1002B000912C05C081E08816910409F079C0D6011F
:1002C000E0E6F0E08CE001900D928150E1F7FE0154
:1002D000FB9682E1DF011D928A95E9F7198A1A8A55
:1002E0001B8A1C8A8AE1F10111928A95E9F760E87C
:1002F00070E0C7010E94A00060EC70E0C6010E949F
:10030000A00089B3813009F0D5C089B38130E9F309
:1003100020E030E000E010E089B3813091F589B34E
:100320008130E9F360E870E0C7010E94A000F701A6
:1003300001900020E9F7EE19FF09CF0181589F4F86
:100340000E945500F601E00FF11F808190E00E94AD
:100350008900C3010197F1F70E5F1F4FF60101906D
:100360000020E9F73197EC19FD09C8010197E8175A
:10037000F90728F420E030E000E010E002C020E0BF
:1003800030E0C2010197F1F72F5F3F4F243631056E
:100390000CF4C2CF8DE290E08C0F9D1F080F191F47
:1003A000D8018C91898BB501C7010E942A0782C0B0
:1003B000B2E08B16910409F07DC060E870E0C701DF
:1003C0000E94A000D501EEE7F0E08EE001900D92D2
:1003D0008150E1F780E12F96EEADFFAD2F9711929E
:1003E0008A95E9F71FA618AA19AA1AAA8AE161969E
:1003F000AEADBFAD61971D928A95E9F760EC70E0F4
:10040000C5010E94A00089B3813009F056C189B3AB
:100410008130E9F320E030E000E010E089B3813082
:1004200091F589B38130E9F360E870E0C7010E947B
:10043000A000F70101900020E9F7EE19FF09CF01B4
:1004400081589F4F0E945500F501E00FF11F8081F8
:1004500090E00E948900C3010197F1F70E5F1F4FE2
:10046000F50101900020E9F73197EA19FB09C8016D
:100470000197E817F90728F420E030E000E010E0E9
:1004800002C020E030E0C2010197F1F72F5F3F4F3B
:10049000243631050CF4C2CFEFE0F0E0EC0FFD1F85
:1004A0000E0F1F1FD8018C918FA7B601C7010E94A4
:1004B0002A0703C1B3E08B16910409F077C060E806
:1004C00070E0C7010E94A000D601ECE9F0E08EE0E8
:1004D00001900D928150E1F780E16396EEADFFADA2
:1004E000639711928A95E9F7198A1A8A1B8A1C8ADE
:1004F0008AE1D1011D928A95E9F760EC70E0C601AE
:100500000E94A00089B3813009F0DDC189B3813038
:10051000E9F320E030E000E010E089B3813091F5AC
:1005200089B38130E9F360E870E0C7010E94A00060
:10053000F70101900020E9F7EE19FF09CF0181587A
:100540009F4F0E945500F601E00FF11F808190E05F
:100550000E948900C3010197F1F70E5F1F4FF6015A
:1005600001900020E9F73197EC19FD09C8010197C6
:10057000E817F90728F420E030E000E010E002C0BE
:1005800020E030E0C2010197F1F72F5F3F4F2436A2
:1005900031050CF4C2CFEDE2F0E0EC0FFD1F0E0FC1
:1005A0001F1FD8018C91898BB50183C0B4E08B16D5
:1005B000910409F469CEE5E08E16910409F07DC03E
:1005C00060E870E0C7010E94A000D501EAEBF0E00E
:1005D0008EE001900D928150E1F780E12F96AEAD53
:1005E000BFAD2F971D928A95E9F71FA618AA19AAE1
:1005F0001AAA8AE16196EEADFFAD619711928A95D4
:10060000E9F760EC70E0C5010E94A00089B3813079
:1006100009F059C189B38130E9F320E030E000E00E
:1006200010E089B3813091F589B38130E9F360E856
:1006300070E0C7010E94A000F70101900020E9F7D7
:10064000EE19FF09CF0181589F4F0E945500F50117
:10065000E00FF11F808190E00E948900C3010197A3
:10066000F1F70E5F1F4FF50101900020E9F7319778
:10067000EA19FB09C8010197E817F90728F420E0F7
:1006800030E000E010E002C020E030E0C20101975D
:10069000F1F72F5F3F4F243631050CF4C2CF8FE0C6
:1006A00090E08C0F9D1F080F191FD8018C918FA708
:1006B000B601C7010E942A0706C1B6E08B16910455
:1006C00009F07AC060E870E0C7010E94A000D6017E
:1006D000E8EDF0E08EE001900D928150E1F780E1CD
:1006E0006396EEADFFAD639711928A95E9F7198A8B
:1006F0001A8A1B8A1C8A8AE1D1011D928A95E9F720
:1007000060EC70E0C6010E94A00089B3813009F05E
:1007100056C189B38130E9F320E030E000E010E019
:1007200089B3813091F589B38130E9F360E870E0F5
:10073000C7010E94A000F70101900020E9F7EE191F
:10074000FF09CF0181589F4F0E945500F601E00F2D
:10075000F11F808190E00E948900C3010197F1F7A9
:100760000E5F1F4FF60101900020E9F73197EC1959
:10077000FD09C8010197E817F90728F420E030E0E7
:1007800000E010E002C020E030E0C2010197F1F784
:100790002F5F3F4F243631050CF4C2CFEDE2F0E07D
:1007A000EC0FFD1F0E0F1F1FD8018C91898BB50117
:1007B000C7010E942A0703C1B7E08B16910409F014
:1007C0007DC060E870E0C7010E94A000D501E6EF9F
:1007D000F0E08EE001900D928150E1F780E12F96DC
:1007E000EEADFFAD2F9711928A95E9F71FA618AAD3
:1007F00019AA1AAA8AE16196AEADBFAD61971D92A2
:100800008A95E9F760EC70E0C5010E94A00089B309
:10081000813009F04FC189B38130E9F320E030E045
:1008200000E010E089B3813091F589B38130E9F3BC
:1008300060E870E0C7010E94A000F701019000206D
:10084000E9F7EE19FF09CF0181589F4F0E9455002B
:10085000F501E00FF11F808190E00E948900C30143
:100860000197F1F70E5F1F4FF50101900020E9F7A6
:100870003197EA19FB09C8010197E817F90728F42D
:1008800020E030E000E010E002C020E030E0C201F3
:100890000197F1F72F5F3F4F243631050CF4C2CF9B
:1008A000EFE0F0E0EC0FFD1F0E0F1F1FD8018C9141
:1008B0008FA7B601C7010E942A07FCC0B8E08B16BB
:1008C000910409F4E1CCE9E08E16910409F077C0B7
:1008D00060E870E0C7010E94A000D601E4E1F1E009
:1008E00082E101900D928150E1F78CE06596AEAD0A
:1008F000BFAD65971D928A95E9F7198A1A8A1B8AF6
:100900001C8A8AE1F10111928A95E9F760EC70E0A6
:10091000C6010E94A00089B3813009F043C189B3A8
:100920008130E9F320E030E000E010E089B381306D
:1009300091F589B38130E9F360E870E0C7010E9466
:10094000A000F70101900020E9F7EE19FF09CF019F
:1009500081589F4F0E945500F601E00FF11F8081E2
:1009600090E00E948900C3010197F1F70E5F1F4FCD
:10097000F60101900020E9F73197EC19FD09C80153
:100980000197E817F90728F420E030E000E010E0D4
:1009900002C020E030E0C2010197F1F72F5F3F4F26
:1009A000243631050CF4C2CF8DE290E08C0F9D1FF0
:1009B000080F191FD8018C91898BB50177C0BAE057
:1009C0008B16910409F076C060E870E0C7010E94C0
:1009D000A000D501E2E3F1E08EE001900D9281509C
:1009E000E1F780E12F96EEADFFAD2F9711928A953A
:1009F000E9F71FA618AA19AA1AAA8AE16196AEAD4C
:100A0000BFAD61971D928A95E9F760EC70E0C50172
:100A10000E94A00020E030E000E010E089B38130C7
:100A200091F589B38130E9F360E870E0C7010E9475
:100A3000A000F70101900020E9F7EE19FF09CF01AE
:100A400081589F4F0E945500F501E00FF11F8081F2
:100A500090E00E948900C3010197F1F70E5F1F4FDC
:100A6000F50101900020E9F73197EA19FB09C80167
:100A70000197E817F90728F420E030E000E010E0E3
:100A800002C020E030E0C2010197F1F72F5F3F4F35
:100A9000243631050CF4C2CFEFE0F0E0EC0FFD1F7F
:100AA0000E0F1F1FD8018C918FA7B601C7010E949E
:100AB0002A0778C0BBE08B16910409F073C060E888
:100AC00070E0C7010E94A000D601E0E5F1E082E1FC
:100AD00001900D928150E1F78CE06596EEADFFAD8F
:100AE000659711928A95E9F7198A1A8A1B8A1C8AD6
:100AF0008AE1D1011D928A95E9F760EC70E0C601A8
:100B00000E94A00020E030E000E010E089B38130D6
:100B100091F589B38130E9F360E870E0C7010E9484
:100B2000A000F70101900020E9F7EE19FF09CF01BD
:100B300081589F4F0E945500F601E00FF11F808100
:100B400090E00E948900C3010197F1F70E5F1F4FEB
:100B5000F60101900020E9F73197EC19FD09C80171
:100B60000197E817F90728F420E030E000E010E0F2
:100B700002C020E030E0C2010197F1F72F5F3F4F44
:100B8000243631050CF4C2CFEDE2F0E0EC0FFD1F8E
:100B90000E0F1F1FD8018C91898BB501C7010E94D0
:100BA0002A07E0C0BDE08B16910409F066C060E83A
:100BB00070E0C7010E94A0008AE290E0A0E0B0E0EF
:100BC000898B9A8BAB8BBC8B8AE1F101982F1192A8
:100BD0009A95E9F71FA618AA19AA1AAA6196AEADA6
:100BE000BFAD61971D928A95E9F760EC70E0C50191
:100BF0000E94A00020E030E000E010E089B38130E6
:100C000091F589B38130E9F360E870E0C7010E9493
:100C1000A000F70101900020E9F7EE19FF09CF01CC
:100C200081589F4F0E945500F501E00FF11F808110
:100C300090E00E948900C3010197F1F70E5F1F4FFA
:100C4000F50101900020E9F73197EA19FB09C80185
:100C50000197E817F90728F420E030E000E010E001
:100C600002C020E030E0C2010197F1F72F5F3F4F53
:100C7000243631050CF4C2CFDFC0BEE08B169104E0
:100C800009F070C060E870E0C7010E94A00080E336
:100C900090E0A0E0B0E08FA798ABA9ABBAAB8AE137
:100CA0006196EEADFFAD6197982F11929A95E9F795
:100CB000198A1A8A1B8A1C8AD1011D928A95E9F722
:100CC00060EC70E0C6010E94A00020E030E000E08F
:100CD00010E089B3813091F589B38130E9F360E8A0
:100CE00070E0C7010E94A000F70101900020E9F721
:100CF000EE19FF09CF0181589F4F0E945500F60160
:100D0000E00FF11F808190E00E948900C3010197EC
:100D1000F1F70E5F1F4FF60101900020E9F73197C0
:100D2000EC19FD09C8010197E817F90728F420E03C
:100D300030E000E010E002C020E030E0C2010197A6
:100D4000F1F72F5F3F4F243631050CF4C2CFEDE2AF
:100D5000F0E0EC0FFD1F0E0F1F1FD8018C91898B47
:100D6000B50174C0BFE08B16910409F08DCA60E82C
:100D700070E0C7010E94A00083E290E0A0E0B0E034
:100D8000898B9A8BAB8BBC8B8AE1F101982F1192E6
:100D90009A95E9F71FA618AA19AA1AAA6196AEADE4
:100DA000BFAD61971D928A95E9F760EC70E0C501CF
:100DB0000E94A00020E030E000E010E089B3813024
:100DC00091F589B38130E9F360E870E0C7010E94D2
:100DD000A000F70101900020E9F7EE19FF09CF010B
:100DE00081589F4F0E945500F501E00FF11F80814F
:100DF00090E00E948900C3010197F1F70E5F1F4F39
:100E0000F50101900020E9F73197EA19FB09C801C3
:100E10000197E817F90728F420E030E000E010E03F
:100E200002C020E030E0C2010197F1F72F5F3F4F91
:100E3000243631050CF4C2CFEFE0F0E0EC0FFD1FDB
:100E40000E0F1F1FD8018C918FA7B601C7010E94FA
:100E50002A071ACAFB01DC010D900020E9F711975F
:100E600001900D920020E1F70895AA1BBB1B51E1F0
:100E700007C0AA1FBB1FA617B70710F0A61BB70B0A
:100E8000881F991F5A95A9F780959095BC01CD01AF
:060E90000895F894FFCF65
:100E96002E202C202D203F20212031000000000094
:100EA60000000000000000000000000000006120BB
:100EB60062206320412042204320320000000000CF
:100EC6000000000000000000000000006420652013
:100ED6006620442045204620330000000000000024
:100EE6000000000000000000000067206820692064
:100EF6004720482049203400000000000000000080
:100F060000000000000000006A206B206C204A20D0
:100F16004B204C20350000000000000000000000BF
:100F26000000000000006D206E206F204D204E2036
:100F36004F20360000000000000000000000000006
:100F46000000000070207120722073205020512074
:100F5600522053203700000000000000000000006F
:100F66000000742075207620542055205620380025
:100F7600000000000000000000000000000000006B
:100F86007720782079207A205720582059205A2017
:0E0F9600390000000000000000000000000014
:00000001FF
