:100000000C942A000C9447000C9447000C94470071
:100010000C9447000C9447000C9447000C94470044
:100020000C9447000C9447000C9447000C94470034
:100030000C9447000C9447000C9447000C94470024
:100040000C9447000C9447000C9447000C94470014
:100050000C94470011241FBECFE5D4E0DEBFCDBF16
:1000600011E0A0E6B0E0EAEAF8E002C005900D92E7
:10007000AC36B107D9F711E0ACE6B1E001C01D9292
:10008000AC36B107E1F70E9401010C9453040C94C3
:10009000000082BB82B38C5F82BB8AEF90E0019745
:1000A000F1F782B3845082BB08950F931F938C01A4
:1000B000807F90700E94490084E0000F111F8A9594
:1000C000E1F7C80190700E9449008AEF90E0019723
:1000D000F1F71F910F91089582E090E00E94550082
:1000E00088E290E00E94550086E090E00E94550072
:1000F0008CE090E00E945500089582BB82B38B5F34
:1001000082BB8AEF90E00197F1F782B3845082BB03
:1001100008950F931F938C01807F90700E947D0043
:1001200094E0000F111F9A95E1F7C80190700E94AA
:100130007D008AEF90E00197F1F71F910F910895EC
:100140000F931F93CF93DF93182F092FCB010E949A
:100150005500212F302FC901EC0103C090E00E940F
:10016000890089918823D1F7DF91CF911F910F9159
:100170000895EF92FF920F931F937C010027F7FCE5
:100180000095102FCB010E94550017FF09C0109554
:100190000095F094E094E11CF11C011D111D27C095
:1001A000E114F1040105110511F580E390E00E94CE
:1001B00089001DC084E090E00E945500C801B7018D
:1001C0002AE030E040E050E00E94CB03DC01CB01AC
:1001D000C0960E948900C801B7012AE030E040E0E3
:1001E00050E00E94CB03C901DA017C018D01E114CA
:1001F000F10401051105F1F61F910F91FF90EF90A9
:100200000895EF92FF920F931F93CF93DF938CEF9C
:100210008ABB8FEF81BB0E946C0081E090E00E945E
:10022000550020E030E00F2EF0E0EF2EF0E0FF2E42
:10023000F0E00F2FF0E01F2FF02DC4ECD9E002C04A
:1002400021E030E089B3813061F589B38130E9F391
:1002500020E030E089B38230F1F489B38230E9F3F1
:10026000B90153E0660F771F5A95E1F7220F331F4C
:10027000620F731F84EB90E00E94B803882777FD1C
:100280008095982F0E946A017B018C0181E090E0AB
:100290000E94550008C0CE010197F1F72F5F3F4F34
:1002A000D9CF232B69F660E870E080E690E00E94E9
:1002B000A0006BE870E087E690E00E94A000C80113
:1002C000B7010E94C801DC01CB0168E870E00E9420
:1002D000B900B6CFA8E0B0E0E0E7F1E00C94250467
:1002E0009B01AC0183E08983DA01C9018827B7FD4E
:1002F00083959927AA27BB27B82E211531054105DB
:10030000510519F482E089833AC08823A9F020308E
:1003100080E0380780E0480780E8580729F460E06B
:1003200070E080E09FEC30C0EE24FF248701E21AE9
:10033000F30A040B150B02C079018A018EE1C82E65
:10034000D12CDC82CB82ED82FE820F831887C8011C
:10035000B7010E941C0201971816190684F4082E92
:1003600004C0EE0CFF1C001F111F0A94D2F7ED828F
:10037000FE820F831887C81AD90ADC82CB82BA8220
:10038000CE0101960E946B022896E9E00C9441048C
:10039000ACE0B0E0EEECF1E00C942C0469837A83DD
:1003A0008B839C83BE016B5F7F4FCE0101960E94C1
:1003B00040038D81823061F1823050F1843021F42C
:1003C0008E81882351F12EC02F81388537FD20C0C2
:1003D0006E812F3131051CF06623F9F023C08EE1C8
:1003E00090E0821B930B29853A854B855C8504C080
:1003F00056954795379527958A95D2F76623B1F09C
:1004000050954095309521953F4F4F4F5F4F0EC00F
:1004100020E030E040E050E009C02FEF3FEF4FEF29
:100420005FE704C020E030E040E050E8B901CA01D5
:100430002C96E2E00C944804EF92FF920F931F93E6
:100440007B018C0180E0E81680E0F80681E0080777
:1004500080E0180788F48FEFE816F1040105110514
:1004600031F028F088E090E0A0E0B0E017C080E034
:1004700090E0A0E0B0E012C080E0E81680E0F8066E
:1004800080E0080781E0180728F088E190E0A0E00C
:10049000B0E004C080E190E0A0E0B0E020E230E015
:1004A00040E050E0281B390B4A0B5B0B04C016954B
:1004B0000795F794E7948A95D2F7F701E459FF4F2F
:1004C0008081281B310941095109C9011F910F91F0
:1004D000FF90EF900895DF92EF92FF920F931F939A
:1004E000FC01E480F58006811781D1808081823013
:1004F00048F480E090E0A0E1B0E0E82AF92A0A2B75
:100500001B2BA5C0843009F49FC0823021F4EE2457
:10051000FF24870105C0E114F1040105110519F458
:10052000E0E0F0E096C0628173819FEF6238790766
:100530000CF05BC022E83FEF261B370B2A31310558
:100540002CF020E030E040E050E02AC0B801A701E4
:10055000022E04C076956795579547950A94D2F771
:1005600081E090E0A0E0B0E004C0880F991FAA1FCE
:10057000BB1F2A95D2F70197A109B1098E219F21AE
:10058000A023B1230097A105B10521F081E090E0FF
:10059000A0E0B0E09A01AB01282B392B4A2B5B2B52
:1005A000DA01C9018F779070A070B0708034910526
:1005B000A105B10539F427FF09C0205C3F4F4F4F1B
:1005C0005F4F04C0215C3F4F4F4F5F4FE0E0F0E0D2
:1005D0002030A0E03A07A0E04A07A0E45A0710F054
:1005E000E1E0F0E079018A0127C06038710564F527
:1005F000FB01E158FF4FD801C7018F779070A070C1
:10060000B07080349105A105B10539F4E7FE0DC045
:1006100080E490E0A0E0B0E004C08FE390E0A0E0D0
:10062000B0E0E80EF91E0A1F1B1F17FF05C0169544
:100630000795F794E794319687E016950795F79418
:10064000E7948A95D1F705C0EE24FF248701EFEFE8
:10065000F0E06E2F679566276795902F9F77D79468
:10066000DD24D7948E2F8695492F462B582F5D2950
:10067000B701CA011F910F91FF90EF90DF9008958D
:10068000FC01DB01408151812281622F6F7770E094
:10069000221F2227221F9381892F880F822B282F28
:1006A00030E0991F9927991F11969C931197211556
:1006B0003105A9F5411551056105710511F482E077
:1006C00037C082E89FEF13969C938E9312979A01FE
:1006D000AB0167E0220F331F441F551F6A95D1F706
:1006E00083E08C930DC0220F331F441F551F1296B9
:1006F0008D919C911397019713969C938E931297CB
:10070000203080E0380780E0480780E4580758F33D
:1007100014962D933D934D935C93179708952F3F17
:10072000310579F4411551056105710519F484E02D
:100730008C93089564FF03C081E08C9312C01C92D7
:1007400010C02F57304013963C932E93129783E09E
:100750008C9387E0440F551F661F771F8A95D1F74A
:10076000706414964D935D936D937C9317970895E1
:1007700097FB092E07260AD077FD04D027D006D094
:1007800000201AF4709561957F4F0895F6F79095C3
:1007900081959F4F089597FB092E05260ED057FD92
:1007A00004D028D00AD0001C38F4509540953095DC
:1007B00021953F4F4F4F5F4F0895F6F790958095E5
:1007C000709561957F4F8F4F9F4F0895AA1BBB1B5C
:1007D00051E107C0AA1FBB1FA617B70710F0A61B41
:1007E000B70B881F991F5A95A9F780959095BC0162
:1007F000CD010895A1E21A2EAA1BBB1BFD010DC05D
:10080000AA1FBB1FEE1FFF1FA217B307E407F507C0
:1008100020F0A21BB30BE40BF50B661F771F881F9C
:10082000991F1A9469F760957095809590959B0132
:10083000AC01BD01CF0108952F923F924F925F927C
:100840006F927F928F929F92AF92BF92CF92DF92E0
:10085000EF92FF920F931F93CF93DF93CDB7DEB745
:10086000CA1BDB0B0FB6F894DEBF0FBECDBF0994D9
:100870002A88398848885F846E847D848C849B8430
:10088000AA84B984C884DF80EE80FD800C811B813E
:10089000AA81B981CE0FD11D0FB6F894DEBF0FBE6D
:0A08A000CDBFED010895F894FFCFDD
:1008AA00537065656420004B4D50480000010202F8
:1008BA0003030303040404040404040405050505EE
:1008CA0005050505050505050505050506060606CA
:1008DA0006060606060606060606060606060606AE
:1008EA00060606060606060606060606070707079A
:1008FA00070707070707070707070707070707077E
:10090A00070707070707070707070707070707076D
:10091A00070707070707070707070707070707075D
:10092A000707070707070707070707070808080849
:10093A00080808080808080808080808080808082D
:10094A00080808080808080808080808080808081D
:10095A00080808080808080808080808080808080D
:10096A0008080808080808080808080808080808FD
:10097A0008080808080808080808080808080808ED
:10098A0008080808080808080808080808080808DD
:10099A0008080808080808080808080808080808CD
:0C09AA00080808080808080808080808E1
:00000001FF
