:100000000C942A000C9447000C9447000C94470071
:100010000C9447000C9447000C9447000C94470044
:100020000C9447000C9447000C9447000C94470034
:100030000C9447000C9447000C9447000C94470024
:100040000C9447000C9447000C9447000C94470014
:100050000C94470011241FBECFE5D4E0DEBFCDBF16
:1000600010E0A0E6B0E0E4EDF1E002C005900D92F2
:10007000A036B107D9F710E0A0E6B0E001C01D92AC
:10008000A036B107E1F70E9449000C94E8000C94F7
:100090000000AF92BF92CF92DF92EF92FF920F9348
:1000A0001F93CF93DF938FEF87BB81BB41E0E4EDDC
:1000B000AE2EE0E3BE2E48BBC0E8D0E0E1E0F0E0C9
:1000C00000E810E071E0E72EF12CCC24DD240BC019
:1000D0009E01209522BBC5010197F1F7CE15DF05E2
:1000E00029F0D595C795CE15DF0594F7C114D10435
:1000F00051F407C0E8BBC5010197F1F7E017F1071C
:1001000079F0EE0FFF1F0E171F07A4F709C09E011D
:10011000209522BBC5010197F1F7C017D10729F03F
:10012000CC0FDD1F0C171D0794F7CF0162E070E0C4
:100130000E94C100FB01EE0CFF1C09C0E8BBC50119
:100140000197F1F7EE15FF0529F0F595E795EE1506
:10015000FF05A4F70894C11CD11C34E0C316D104D8
:1001600009F4A9CFCE0162E070E00E94C100EB016A
:10017000EE0FFF1FC80162E070E00E94C1008B011A
:10018000B2CF97FB092E07260AD077FD04D00CD0FA
:1001900006D000201AF4709561957F4F0895F6F708
:1001A000909581959F4F0895AA1BBB1B51E107C0F5
:1001B000AA1FBB1FA617B70710F0A61BB70B881FF7
:1001C000991F5A95A9F780959095BC01CD01089586
:0401D000F894FFCFD1
:00000001FF
