:100000000C942A000C9447000C9447000C94470071
:100010000C9447000C9447000C9447000C94470044
:100020000C9447000C9447000C9447000C94470034
:100030000C9447000C9447000C9447000C94470024
:100040000C9447000C9447000C9447000C94470014
:100050000C94470011241FBECFE5D4E0DEBFCDBF16
:1000600010E0A0E6B0E0ECE3F1E002C005900D92F4
:10007000A036B107D9F710E0A0E6B0E001C01D92AC
:10008000A036B107E1F70E9449000C949C000C9443
:1000900000000F931F93CF93DF938FEF87BBC0E0D8
:1000A000D0E0E0E8F0E008EA11E61CC0822F8C0FF7
:1000B00088BBC8010197F1F7220F331FE217F3073E
:1000C000ACF7CF0162E070E00E947500CB0116161C
:1000D00017062CF0C0E0D0E080E890E002C0CE0F20
:1000E000DF1FFC0121E030E0E9CF97FB092E072656
:1000F0000AD077FD04D00CD006D000201AF47095F9
:1001000061957F4F0895F6F7909581959F4F0895DB
:10011000AA1BBB1B51E107C0AA1FBB1FA617B7072D
:1001200010F0A61BB70B881F991F5A95A9F7809549
:0C0130009095BC01CD010895F894FFCF1C
:00000001FF
