:100000000C942A000C9447000C9447000C94470071
:100010000C9447000C9447000C9447000C94470044
:100020000C9447000C9447000C9447000C94470034
:100030000C9447000C9447000C9447000C94470024
:100040000C9447000C9447000C9447000C94470014
:100050000C94470011241FBECFE5D4E0DEBFCDBF16
:1000600010E0A0E6B0E0E4EAF3E002C005900D92F3
:10007000A436B107D9F710E0A4E6B0E001C01D92A4
:10008000A436B107E1F70E9410010C94D0010C9442
:10009000000082BB82B38C5F82BB8AEF90E0019745
:1000A000F1F782B3845082BB08950F931F938C01A4
:1000B000807F90700E94490084E0000F111F8A9594
:1000C000E1F7C80190700E9449008AEF90E0019723
:1000D000F1F71F910F91089582E090E00E94550082
:1000E00088E290E00E94550086E090E00E94550072
:1000F0008CE090E00E945500089582BB82B38B5F34
:1001000082BB8AEF90E00197F1F782B3845082BB03
:1001100008950F931F938C01807F90700E947D0043
:1001200094E0000F111F9A95E1F7C80190700E94AA
:100130007D008AEF90E00197F1F71F910F910895EC
:100140000F931F93CF93DF93182F092FCB010E949A
:100150005500212F302FC901EC0103C090E00E940F
:10016000890089918823D1F7DF91CF911F910F9159
:100170000895EF92FF920F931F937C010027F7FCE5
:100180000095102FCB010E94550017FF09C0109554
:100190000095F094E094E11CF11C011D111D27C095
:1001A000E114F1040105110511F580E390E00E94CE
:1001B00089001DC084E090E00E945500C801B7018D
:1001C0002AE030E040E050E00E947F01DC01CB01FA
:1001D000C0960E948900C801B7012AE030E040E0E3
:1001E00050E00E947F01C901DA017C018D01E11418
:1001F000F10401051105F1F61F910F91FF90EF90A9
:1002000008958AE183BF88E087BB0895806487B939
:1002100087ED86B9349BFECF24B135B1C90108956D
:10022000BF92CF92DF92EF92FF920F931F93CF93E3
:10023000DF938FEF81BB0E946C0081E090E00E9411
:1002400055008AE183BF88E087BB40E4B42E37EDD8
:10025000D32E21E4C22EC8EAD1E681E090E00E94CC
:100260005500B7B8D6B8349BFECF44B155B1C7B826
:10027000D6B8349BFECF24B135B1CA0164E070E03A
:100280000E946C01E62E172FC90164E070E00E9405
:100290006C01062FF72E68E870E080E690E00E947F
:1002A000A0006FE870E08E2D912F0E94B90068ECDD
:1002B00070E082E690E00E94A0006FEC70E0802F7A
:1002C0009F2D0E94B900ECBECE010197F1F70CBF43
:1002D000CE010197F1F7C1CF97FB092E07260AD06F
:1002E00077FD04D027D006D000201AF470956195D0
:1002F0007F4F0895F6F7909581959F4F089597FB4E
:10030000092E05260ED057FD04D028D00AD0001C97
:1003100038F450954095309521953F4F4F4F5F4FA2
:100320000895F6F790958095709561957F4F8F4F62
:100330009F4F0895AA1BBB1B51E107C0AA1FBB1FFB
:10034000A617B70710F0A61BB70B881F991F5A9561
:10035000A9F780959095BC01CD010895A1E21A2ED0
:10036000AA1BBB1BFD010DC0AA1FBB1FEE1FFF1F59
:10037000A217B307E407F50720F0A21BB30BE40BA9
:10038000F50B661F771F881F991F1A9469F76095F0
:100390007095809590959B01AC01BD01CF010895AA
:0403A000F894FFCFFF
:0403A4007800790064
:00000001FF
