:100000000C942A000C9447000C9447000C94470071
:100010000C9447000C9447000C9447000C94470044
:100020000C9447000C9447000C9447000C94470034
:100030000C9447000C9447000C9447000C94470024
:100040000C9447000C9447000C9447000C94470014
:100050000C94470011241FBECFE5D4E0DEBFCDBF16
:1000600010E0A0E6B0E0E0E1F2E002C005900D9201
:10007000A036B107D9F710E0A0E6B0E001C01D92AC
:10008000A036B107E1F70E94C3000C9406010C945E
:10009000000082BB82B38C5F82BB8AEF90E0019745
:1000A000F1F782B3845082BB08950F931F938C01A4
:1000B000807F90700E94490084E0000F111F8A9594
:1000C000E1F7C80190700E9449008AEF90E0019723
:1000D000F1F71F910F91089582E090E00E94550082
:1000E00088E290E00E94550086E090E00E94550072
:1000F0008CE090E00E945500089582BB82B38B5F34
:1001000082BB8AEF90E00197F1F782B3845082BB03
:1001100008950F931F938C01807F90700E947D0043
:1001200094E0000F111F9A95E1F7C80190700E94AA
:100130007D008AEF90E00197F1F71F910F910895EC
:100140000F931F93CF93DF93182F092FCB010E949A
:100150005500212F302FC901EC0103C090E00E940F
:10016000890089918823D1F7DF91CF911F910F9159
:100170000895806487B987ED86B9349BFECF24B19A
:1001800035B1C90108951F938FEF87BB10E4B7ED18
:1001900049E150E0A1E074E065E017B9B6B9349BDD
:1001A000FECF24B135B1283C310544F418BA80E1C2
:1001B00097E2FA013197F1F70197D9F7C901895C04
:1001C0009040873C910540F4A8BB80E197E2FA019A
:1001D0003197F1F70197D9F7C901815991408F58AB
:1001E000914040F478BB80E197E2FA013197F1F752
:1001F0000197D9F72152334084F268BB80E197E23E
:10020000FA013197F1F70197D9F7C7CFF894FFCFEB
:00000001FF
