:100000000C942A000C9447000C9447000C94470071
:100010000C9447000C9447000C9447000C94470044
:100020000C9447000C9447000C9447000C94470034
:100030000C9447000C9447000C9447000C94470024
:100040000C9447000C9447000C9447000C94470014
:100050000C94470011241FBECFE5D4E0DEBFCDBF16
:1000600010E0A0E6B0E0E4E8F2E002C005900D92F6
:10007000A036B107D9F710E0A0E6B0E001C01D92AC
:10008000A036B107E1F70E94EE000C9440010C94F9
:10009000000085BB85B38C5F85BB80ED97E0019741
:1000A000F1F785B3845085BB08950F931F938C019E
:1000B000807F90700E94490084E0000F111F8A9594
:1000C000E1F7C80190700E94490080ED97E0019728
:1000D000F1F71F910F91089582E090E00E94550082
:1000E00088E290E00E94550086E090E00E94550072
:1000F0008CE090E00E945500089585BB85B38B5F2E
:1001000085BB80ED97E00197F1F785B3845085BBFF
:1001100008950F931F938C01807F90700E947D0043
:1001200094E0000F111F9A95E1F7C80190700E94AA
:100130007D0080ED97E00197F1F71F910F910895F1
:100140000F931F93CF93DF93182F092FCB010E949A
:100150005500212F302FC901EC0103C090E00E940F
:10016000890089918823D1F7DF91CF911F910F9159
:100170000895CF93DF93EC01CB010E9455002097A7
:10018000C9F480E390E00E948900C0E0D0E012C092
:1001900084E090E00E945500CE016AE070E00E9489
:1001A0002C01C0960E948900CE016AE070E00E9496
:1001B0002C01EB01209761F7DF91CF91089581E049
:1001C00090E00E9455000895806487B987ED86B954
:1001D000349BFECF24B135B1C9010895AF92BF92CF
:1001E000CF92DF92EF92FF920F931F93CF93DF9303
:1001F0008FEF84BB0E946C0060E4A62E57EDF52EB5
:1002000041E4B42E32E4E32E20E2C22E2EE4D22EBC
:10021000A7B8F6B8349BFECF84B195B1B7B8F6B89D
:10022000349BFECFC4B1D5B1E7B8F6B8349BFECF4E
:1002300004B115B169E870E00E94B90069EC70E0A2
:10024000CE010E94B9006FEC70E0C8010E94B900B5
:10025000C6010197F1F7DCCFAA1BBB1B51E107C018
:10026000AA1FBB1FA617B70710F0A61BB70B881F46
:10027000991F5A95A9F780959095BC01CD010895D5
:04028000F894FFCF20
:00000001FF
