:100000000C942A000C9447000C9447000C94470071
:100010000C9447000C9447000C9447000C94470044
:100020000C9447000C9447000C9447000C94470034
:100030000C9447000C9447000C9447000C94470024
:100040000C9447000C9447000C9447000C94470014
:100050000C94470011241FBECFE5D4E0DEBFCDBF16
:1000600011E0A0E6B0E0E0E0F0E102C005900D9202
:10007000A439B107D9F711E0A4E9B1E001C01D929C
:10008000A439B107E1F70E9461010C94FE070C94BA
:10009000000082BB82B38C5F82BB8AEF90E0019745
:1000A000F1F782B3845082BB08950F931F938C01A4
:1000B000807F90700E94490084E0000F111F8A9594
:1000C000E1F7C80190700E9449008AEF90E0019723
:1000D000F1F71F910F91089582E090E00E94550082
:1000E00088E290E00E94550086E090E00E94550072
:1000F0008CE090E00E945500089582BB82B38B5F34
:1001000082BB8AEF90E00197F1F782B3845082BB03
:1001100008950F931F938C01807F90700E947D0043
:1001200094E0000F111F9A95E1F7C80190700E94AA
:100130007D008AEF90E00197F1F71F910F910895EC
:100140000F931F93CF93DF93182F092FCB010E949A
:100150005500212F302FC901EC0103C090E00E940F
:10016000890089918823D1F7DF91CF911F910F9159
:10017000089570EE24EC39E060ED50EB40E775BB7C
:10018000C9010197F1F789B38E3031F489B38E300C
:10019000E9F321E030E093C089B38D3031F489B3C5
:1001A0008D30E9F322E030E08AC089B38B3031F43E
:1001B00089B38B30E9F323E030E081C089B3873025
:1001C00031F489B38730E9F324E030E078C065BBCF
:1001D000C9010197F1F789B38E3031F489B38E30BC
:1001E000E9F325E030E06BC089B38D3031F489B399
:1001F0008D30E9F326E030E062C089B38B3031F412
:1002000089B38B30E9F327E030E059C089B38730F8
:1002100031F489B38730E9F328E030E050C055BBB2
:10022000C9010197F1F789B38E3031F489B38E306B
:10023000E9F329E030E043C089B38D3031F489B36C
:100240008D30E9F32AE030E03AC089B38B3031F4E5
:1002500089B38B30E9F32BE030E031C089B38730CC
:1002600031F489B38730E9F32CE030E028C045BB96
:10027000C9010197F1F789B38E3031F489B38E301B
:10028000E9F32DE030E01BC089B38D3031F489B340
:100290008D30E9F32EE030E012C089B38B3031F4B9
:1002A00089B38B30E9F32FE030E009C089B38730A0
:1002B00009F065CF89B38730E9F320E130E0C90167
:1002C00008952F923F924F925F926F927F928F92FA
:1002D0009F92AF92BF92CF92DF92EF92FF920F93D5
:1002E0001F93DF93CF93CDB7DEB7C655D0400FB67F
:1002F000F894DEBF0FBECDBF8FEF81BB90EF9ABBEE
:100300008FE08BBB94BB0E946C0081E090E00E9468
:10031000550060E870E080E690E00E94A00019823D
:100320001A821B821C82FE0135968CE0DF011D9231
:100330008A95E9F72F961FAE1EAE2F977E0108947F
:10034000E11CF11C6FE2C62ED12CCC0EDD1EFE018D
:10035000FB966196FFAFEEAF619755E1252E312CEC
:100360002C0E3D1E4CE4442E4DE1542E34EC632EF5
:1003700039E0732E21E1A22EB12CAC0EBD1ECE01B0
:100380004F9663969FAF8EAF6397DE01D3966596C7
:10039000BFAFAEAF6597FE01EF5BFF4F6796FFAF54
:1003A000EEAF67970FC02F968EAD9FAD2F9701963A
:1003B0002F969FAF8EAF2F97892B21F081E090E091
:1003C0000E94550060E870E0C7010E94A0000E94F2
:1003D000B9004C0191E08916910409F075C089B308
:1003E0008E30E9F381E090E00E945500D601E5E807
:1003F000F0E08CE001900D928150E1F782E161968E
:10040000AEADBFAD61971D928A95E9F7198A1A8A38
:100410001B8A1C8A8AE1F10111928A95E9F760EC46
:1004200070E0C6010E94A00020E030E000E010E093
:1004300089B38E3091F589B38E30E9F360E870E0CE
:10044000C7010E94A000F70101900020E9F7EE1912
:10045000FF09CF0181589F4F0E945500F601E00F20
:10046000F11F808190E00E948900C2010197F1F79D
:100470000E5F1F4FF60101900020E9F73197EC194C
:10048000FD09C8010197E817F90728F420E030E0DA
:1004900000E010E002C020E030E0C3010197F1F776
:1004A0002F5F3F4F243631050CF4C2CF8DE290E030
:1004B0008C0F9D1F080F191FD8018C91898BB501D6
:1004C000C7010E94EA070EC1B2E08B16910409F041
:1004D00078C089B38D30E9F381E090E00E94550047
:1004E000D501E3EAF0E08EE001900D928150E1F752
:1004F00080E16396EEADFFAD639711928A95E9F7BF
:100500001FA618AA19AA1AAA8AE16596AEADBFADB0
:1005100065971D928A95E9F760EC70E0C5010E942D
:10052000A00020E030E000E010E089B38D3091F5CC
:1005300089B38D30E9F360E870E0C7010E94A00044
:10054000F70101900020E9F7EE19FF09CF0181586A
:100550009F4F0E945500F501E00FF11F808190E050
:100560000E948900C2010197F1F70E5F1F4FF5014C
:1005700001900020E9F73197EA19FB09C8010197BA
:10058000E817F90728F420E030E000E010E002C0AE
:1005900020E030E0C3010197F1F72F5F3F4F243691
:1005A00031050CF4C2CFEFE0F0E0EC0FFD1F0E0FB1
:1005B0001F1FD8018C918FA7B601C7010E94EA07BF
:1005C0000EC1B3E08B16910409F074C089B38B306F
:1005D000E9F381E090E00E945500D601E1ECF0E003
:1005E0008EE001900D928150E1F7FE01FD9680E1D1
:1005F000DF011D928A95E9F7198A1A8A1B8A1C8ADB
:100600008AE1F10111928A95E9F760EC70E0C60188
:100610000E94A00020E030E000E010E089B38B30C1
:1006200091F589B38B30E9F360E870E0C7010E946F
:10063000A000F70101900020E9F7EE19FF09CF01B2
:1006400081589F4F0E945500F601E00FF11F8081F5
:1006500090E00E948900C2010197F1F70E5F1F4FE1
:10066000F60101900020E9F73197EC19FD09C80166
:100670000197E817F90728F420E030E000E010E0E7
:1006800002C020E030E0C3010197F1F72F5F3F4F38
:10069000243631050CF4C2CF8DE290E08C0F9D1F03
:1006A000080F191FD8018C91898BB501C7010E94D1
:1006B000EA070EC1B4E08B169104A1F481E090E04A
:1006C0000E945500F70101900020E9F73197EE19DB
:1006D000FF09EC0FFD1F108260E870E0C7010E9467
:1006E000A00073C1E5E08E16910409F078C089B3CB
:1006F0008E30E9F381E090E00E945500D501EFEDE6
:10070000F0E08EE001900D928150E1F780E1639678
:10071000AEADBFAD63971D928A95E9F71FA618AAE3
:1007200019AA1AAA8AE16596EEADFFAD65971192F6
:100730008A95E9F760EC70E0C5010E94A00020E016
:1007400030E000E010E089B38E3091F589B38E304F
:10075000E9F360E870E0C7010E94A000F701019092
:100760000020E9F7EE19FF09CF0181589F4F0E9441
:100770005500F501E00FF11F808190E00E94890093
:10078000C2010197F1F70E5F1F4FF50101900020A4
:10079000E9F73197EA19FB09C8010197E817F9074A
:1007A00028F420E030E000E010E002C020E030E07B
:1007B000C3010197F1F72F5F3F4F243631050CF449
:1007C000C2CF8FE090E08C0F9D1F080F191FD8013A
:1007D0008C918FA7B601C7010E94EA0739C1B6E024
:1007E0008B16910409F074C089B38D30E9F381E070
:1007F00090E00E945500D601EDEFF0E08EE0019010
:100800000D928150E1F7FE01FD9680E1DF011D921E
:100810008A95E9F7198A1A8A1B8A1C8A8AE1F101EA
:1008200011928A95E9F760EC70E0C6010E94A00081
:1008300020E030E000E010E089B38D3091F589B31D
:100840008D30E9F360E870E0C7010E94A000F70175
:1008500001900020E9F7EE19FF09CF0181589F4F61
:100860000E945500F601E00FF11F808190E00E9488
:100870008900C2010197F1F70E5F1F4FF601019049
:100880000020E9F73197EC19FD09C8010197E81735
:10089000F90728F420E030E000E010E002C020E09A
:1008A00030E0C3010197F1F72F5F3F4F2436310548
:1008B0000CF4C2CF8DE290E08C0F9D1F080F191F22
:1008C000D8018C91898BB501C7010E94EA073AC112
:1008D000B7E08B16910409F078C089B38B30E9F347
:1008E00081E090E00E945500D501EBE1F1E08EE05F
:1008F00001900D928150E1F780E16396EEADFFAD7E
:10090000639711928A95E9F71FA618AA19AA1AAA3D
:100910008AE16596AEADBFAD65971D928A95E9F700
:1009200060EC70E0C5010E94A00020E030E000E033
:1009300010E089B38B3091F589B38B30E9F360E82F
:1009400070E0C7010E94A000F70101900020E9F7C4
:10095000EE19FF09CF0181589F4F0E945500F50104
:10096000E00FF11F808190E00E948900C201019791
:10097000F1F70E5F1F4FF50101900020E9F7319765
:10098000EA19FB09C8010197E817F90728F420E0E4
:1009900030E000E010E002C020E030E0C301019749
:1009A000F1F72F5F3F4F243631050CF4C2CFEFE053
:1009B000F0E0EC0FFD1F0E0F1F1FD8018C918FA7C9
:1009C000B601C7010E94EA073AC1B8E08B1691044C
:1009D00009F03EC06BE670E0C7010E94F507009782
:1009E000A1F481E090E00E94550064E870E083E7A4
:1009F00090E00E94A00080E197E229E130E0F90157
:100A00003197F1F70197D9F713C081E090E00E9488
:100A1000550064E870E08BE790E00E94A00080E160
:100A200097E229E130E0F9013197F1F70197D9F721
:100A3000198281E090E00E94550060E870E080E655
:100A400090E00E94A0002F961FAE1EAE2F97BACC4A
:100A5000E9E08E16910409F075C089B38E30E9F390
:100A600081E090E00E945500D601E9E3F1E082E1E7
:100A700001900D928150E1F78CE06796AEADBFAD6D
:100A800067971D928A95E9F7198A1A8A1B8A1C8A28
:100A90008AE1F10111928A95E9F760EC70E0C601F4
:100AA0000E94A00020E030E000E010E089B38E302A
:100AB00091F589B38E30E9F360E870E0C7010E94D8
:100AC000A000F70101900020E9F7EE19FF09CF011E
:100AD00081589F4F0E945500F601E00FF11F808161
:100AE00090E00E948900C2010197F1F70E5F1F4F4D
:100AF000F60101900020E9F73197EC19FD09C801D2
:100B00000197E817F90728F420E030E000E010E052
:100B100002C020E030E0C3010197F1F72F5F3F4FA3
:100B2000243631050CF4C2CF8DE290E08C0F9D1F6E
:100B3000080F191FD8018C91898BB501C7010E943C
:100B4000EA0757C1BAE08B16910409F078C089B35F
:100B50008D30E9F381E090E00E945500D501E7E592
:100B6000F1E08EE001900D928150E1F780E1639613
:100B7000EEADFFAD639711928A95E9F71FA618AA0B
:100B800019AA1AAA8AE16596AEADBFAD65971D9206
:100B90008A95E9F760EC70E0C5010E94A00020E0B2
:100BA00030E000E010E089B38D3091F589B38D30ED
:100BB000E9F360E870E0C7010E94A000F70101902E
:100BC0000020E9F7EE19FF09CF0181589F4F0E94DD
:100BD0005500F501E00FF11F808190E00E9489002F
:100BE000C2010197F1F70E5F1F4FF5010190002040
:100BF000E9F73197EA19FB09C8010197E817F907E6
:100C000028F420E030E000E010E002C020E030E016
:100C1000C3010197F1F72F5F3F4F243631050CF4E4
:100C2000C2CFEFE0F0E0EC0FFD1F0E0F1F1FD80149
:100C30008C918FA7B601C7010E94EA0751C1BBE0A2
:100C40008B16910409F068C089B38B30E9F381E019
:100C500090E00E945500D601E5E7F1E082E10190C5
:100C60000D928150E1F78CE06796EEADFFAD67978E
:100C700011928A95E9F7198A1A8A1B8A1C8A8AE1D5
:100C8000D1011D928A95E9F760EC70E0C6010E94DF
:100C9000A00020E030E000E010E089B38B3091F557
:100CA00089B38B30E9F360E870E0C7010E94A000CF
:100CB000F70101900020E9F7EE19FF09CF018158F3
:100CC0009F4F0E945500F601E00FF11F808190E0D8
:100CD0000E948900C2010197F1F70E5F1F4FF601D4
:100CE00001900020E9F73197EC19FD09C80101973F
:100CF000E817F90728F420E030E000E010E002C037
:100D000020E030E0C3010197F1F72F5F3F4F243619
:100D100031050CF4C2CFD9C0BDE08B16910409F0A7
:100D200068C089B38E30E9F381E090E00E945500FD
:100D30008AE290E0A0E0B0E0898B9A8BAB8BBC8B11
:100D40008AE1F101982F11929A95E9F71FA618AA46
:100D500019AA1AAA6596AEADBFAD65971D928A9580
:100D6000E9F760EC70E0C5010E94A00020E030E0EF
:100D700000E010E089B38E3091F589B38E30E9F34D
:100D800060E870E0C7010E94A000F7010190002018
:100D9000E9F7EE19FF09CF0181589F4F0E945500D6
:100DA000F501E00FF11F808190E00E948900C201EF
:100DB0000197F1F70E5F1F4FF50101900020E9F751
:100DC0003197EA19FB09C8010197E817F90728F4D8
:100DD00020E030E000E010E002C020E030E0C3019D
:100DE0000197F1F72F5F3F4F243631050CF4C2CF46
:100DF000E3C0BEE08B16910409F072C089B38D3058
:100E0000E9F381E090E00E94550080E390E0A0E0EB
:100E1000B0E08FA798ABA9ABBAAB8AE16596EEAD0F
:100E2000FFAD6597982F11929A95E9F7198A1A8A5A
:100E30001B8A1C8AD1011D928A95E9F760EC70E04B
:100E4000C6010E94A00020E030E000E010E089B37D
:100E50008D3091F589B38D30E9F360E870E0C7011A
:100E60000E94A000F70101900020E9F7EE19FF09A8
:100E7000CF0181589F4F0E945500F601E00FF11FEE
:100E8000808190E00E948900C2010197F1F70E5F16
:100E90001F4FF60101900020E9F73197EC19FD0989
:100EA000C8010197E817F90728F420E030E000E0D6
:100EB00010E002C020E030E0C3010197F1F72F5F9E
:100EC0003F4F243631050CF4C2CFEDE2F0E0EC0FD9
:100ED000FD1F0E0F1F1FD8018C91898BB50176C0A5
:100EE000BFE08B16910409F05ECA89B38B30E9F339
:100EF00081E090E00E94550083E290E0A0E0B0E045
:100F0000898B9A8BAB8BBC8B8AE1F101982F119264
:100F10009A95E9F71FA618AA19AA1AAA6596AEAD5E
:100F2000BFAD65971D928A95E9F760EC70E0C50149
:100F30000E94A00020E030E000E010E089B38B3098
:100F400091F589B38B30E9F360E870E0C7010E9446
:100F5000A000F70101900020E9F7EE19FF09CF0189
:100F600081589F4F0E945500F501E00FF11F8081CD
:100F700090E00E948900C2010197F1F70E5F1F4FB8
:100F8000F50101900020E9F73197EA19FB09C80142
:100F90000197E817F90728F420E030E000E010E0BE
:100FA00002C020E030E0C3010197F1F72F5F3F4F0F
:100FB000243631050CF4C2CFEFE0F0E0EC0FFD1F5A
:100FC0000E0F1F1FD8018C918FA7B601C7010E9479
:100FD000EA07E9C9FB01DC010D900020E9F7119750
:100FE00001900D920020E1F70895FB01DC018D9145
:100FF000019080190110D9F3990B0895F894FFCF4F
:10100000456E7465725F5061737300506173733124
:10101000323300436F727265637400496E636F729E
:1010200072656374002E202C202D203F202120315A
:1010300000000000000000000000000000000000B0
:1010400000000061206220632041204220432032C2
:101050000000000000000000000000000000000090
:10106000006420652066204420452046203300008F
:101070000000000000000000000000000000006709
:1010800020682069204720482049203400000000C3
:10109000000000000000000000000000006A206B5B
:1010A000206C204A204B204C20350000000000001E
:1010B00000000000000000000000006D206E206FA6
:1010C000204D204E204F2036000000000000000080
:1010D00000000000000000000070207120722073EA
:1010E00020502051205220532037000000000000E3
:1010F0000000000000000074207520762054205568
:101100002056203800000000000000000000000011
:1011100000000000007720782079207A205720589E
:101120002059205A20390000000000000000000073
:0411300000000000BB
:00000001FF
