:100000000C942A000C9447000C9447000C94470071
:100010000C9447000C9447000C9447000C94470044
:100020000C9447000C9447000C9447000C94470034
:100030000C9447000C9447000C9447000C94470024
:100040000C9447000C9447000C9447000C94470014
:100050000C94470011241FBECFE5D4E0DEBFCDBF16
:1000600011E0A0E6B0E0E2E5F4E002C005900D92F8
:10007000A631B107D9F711E0A6E1B1E001C01D92A8
:10008000A631B107E1F70E94EA000C9427020C9414
:10009000000085BB85B38C5F85BB8AEF90E001973C
:1000A000F1F785B3845085BB08950F931F938C019E
:1000B000807F90700E94490084E0000F111F8A9594
:1000C000E1F7C80190700E9449008AEF90E0019723
:1000D000F1F71F910F91089582E090E00E94550082
:1000E00088E290E00E94550086E090E00E94550072
:1000F0008CE090E00E945500089585BB85B38B5F2E
:1001000085BB8AEF90E00197F1F785B3845085BBFA
:1001100008950F931F938C01807F90700E947D0043
:1001200094E0000F111F9A95E1F7C80190700E94AA
:100130007D008AEF90E00197F1F71F910F910895EC
:100140000F931F93CF93DF93182F092FCB010E949A
:100150005500212F302FC901EC0103C090E00E940F
:10016000890089918823D1F7DF91CF911F910F9159
:100170000895CF93DF93EC01CB010E9455002097A7
:10018000C9F480E390E00E948900C0E0D0E012C092
:1001900084E090E00E945500CE016AE070E00E9489
:1001A0001302C0960E948900CE016AE070E00E94AE
:1001B0001302EB01209761F7DF91CF91089581E061
:1001C00090E00E94550060E870E080E690E00E94B8
:1001D000A000FFCF5F926F927F928F929F92AF921B
:1001E000BF92CF92DF92EF92FF920F931F93CF9324
:1001F000DF9380EF81BB8FEF87BB84BB8CEF8ABB23
:100200000E946C0081E090E00E94550006EA902E6A
:1002100018E9E12E1AE3F12EB4ECAB2EB9E0BB2EB7
:1002200081E090E00E94550062E870E08091CA0091
:100230009091CB000E94A00089B38330E9F789B385
:100240008330E9F3A1E0CA2ED12C82E090E002C015
:10025000C601680128E0C216D10424F0F1E0CF2ED7
:10026000D12C06C01C141D041CF0E7E0CE2ED12CAE
:10027000C816D906A1F081E090E00E945500F60171
:10028000EE0FFF1FE653FF4F63E870E0808191811E
:100290000E94A00060E870E0C6010E94B90089B326
:1002A000833009F06EC089B38330E9F3C50101974B
:1002B000F1F787E0C816D10409F4B2CFEE24FF2489
:1002C00060EF562E59E1652E712C40E5842E43ECEB
:1002D000942E01C0750151BA81E090E00E94550052
:1002E00060E870E088E690E00E94A000C0E0D0E006
:1002F00000E010E080B390E08E159F05D9F380B345
:10030000A82EBB240115110541F481E090E00E9464
:10031000550080E890E00E94550000581F4FB8013A
:10032000C5010E94B900CE0133E0880F991F3A95AC
:10033000E1F7CC0FDD1FC80FD91FCA0DDB1D0F570A
:100340001040750104301105A9F6C25DD44039F49E
:10035000C6010E94DF00C4010197F1F7BBCF81E025
:1003600090E00E94550060E870E084E790E00E9411
:10037000A00088E893E1F3013197F1F70197D9F7ED
:10038000A9CF89B3813029F520E030E089B38130ED
:10039000E9F389B38230A1F489B38230E9F3C0E094
:1003A000D0E08AE190E00E945500C7010197F1F783
:1003B0002196CE30D105A9F786010F5F1F4F0AC0E5
:1003C0002F5F3F4F892D8A95F1F783E0283E38074C
:1003D000E9F6860189B3823009F03ACF20E030E0B7
:1003E00089B38230E9F389B3813099F489B38130DC
:1003F000E9F3C0E0D0E08CE190E00E945500C70135
:100400000197F1F72196CE30D105A9F701501040A0
:100410001FCF2F5F3F4F892D8A95F1F783E0283E4C
:100420003807F1F615CFAA1BBB1B51E107C0AA1F65
:10043000BB1FA617B70710F0A61BB70B881F991F85
:100440005A95A9F780959095BC01CD010895F8942F
:02045000FFCFDC
:1004520057656C636F6D6500456E74657220504917
:100462004E5F5F00496E636F727265637400415440
:100472004D5F5F0042616E6B696E670042616C6145
:100482006E63655F456E7175697279005472616E53
:1004920073666572004372656469740053657276AF
:1004A20069636573004368616E67655F506173736A
:1004B200776F7264004261636B007E0084008C007F
:1004C2009C00A500AC00B500C500004469676974D2
:1004D200616C5F436C6F636B0053746F705F576145
:1004E200746368004C444D5F47616D6500537461ED
:1004F2007274004D7573696300DA00DB00E900F481
:0605020000FD00030100F2
:00000001FF
