:100000000C942A000C9447000C9447000C94470071
:100010000C9447000C9447000C9447000C94470044
:100020000C9447000C9447000C9447000C94470034
:100030000C9447000C9447000C9447000C94470024
:100040000C9447000C9447000C9447000C94470014
:100050000C94470011241FBECFE5D4E0DEBFCDBF16
:1000600010E0A0E6B0E0ECE7F2E002C005900D92EF
:10007000A436B107D9F710E0A4E6B0E001C01D92A4
:10008000A436B107E1F70E94B9000C943C010C942E
:10009000000082BB82B38C5F82BB8AEF90E0019745
:1000A000F1F782B3845082BB08950F931F938C01A4
:1000B000807F90700E94490084E0000F111F8A9594
:1000C000E1F7C80190700E9449008AEF90E0019723
:1000D000F1F71F910F91089582E090E00E94550082
:1000E00088E290E00E94550086E090E00E94550072
:1000F0008CE090E00E945500089582BB82B38B5F34
:1001000082BB8AEF90E00197F1F782B3845082BB03
:1001100008950F931F938C01807F90700E947D0043
:1001200094E0000F111F9A95E1F7C80190700E94AA
:100130007D008AEF90E00197F1F71F910F910895EC
:100140000F931F93CF93DF93182F092FCB010E949A
:100150005500212F302FC901EC0103C090E00E940F
:10016000890089918823D1F7DF91CF911F910F9159
:100170000895DF92EF92FF920F931F93CF93DF9337
:100180001FEF11BB0E946C0081E090E00E945500BF
:100190008EEF8ABB17BB00E010E0DD24D39444EC63
:1001A000E42E49E0F42E81E090E00E94550061E8E1
:1001B00070E080E690E00E94A00085EC90E00E9454
:1001C0005500E801CC0FDD1FC00FD11FCC0FDD1F84
:1001D000CC0FDD1F12C084E090E00E945500CE01DC
:1001E0006AE070E00E941501C0960E948900CE016D
:1001F0006AE070E00E941501EB01209761F700E0D2
:1002000010E020E030E0D8BA89B3882329F489B31C
:100210008823E9F30F5F1F4FC7010197F1F72F5FA5
:100220003F4F283C310579F7BECF97FB092E0726B3
:100230000AD077FD04D00CD006D000201AF47095B7
:1002400061957F4F0895F6F7909581959F4F08959A
:10025000AA1BBB1B51E107C0AA1FBB1FA617B707EC
:1002600010F0A61BB70B881F991F5A95A9F7809508
:0C0270009095BC01CD010895F894FFCFDB
:04027C0052504D008F
:00000001FF
