:100000000C942A000C9447000C9447000C94470071
:100010000C9447000C9447000C9447000C94470044
:100020000C9447000C9447000C9447000C94470034
:100030000C9447000C9447000C9447000C94470024
:100040000C9447000C9447000C9447000C94470014
:100050000C94470011241FBECFE5D4E0DEBFCDBF16
:1000600011E0A0E6B0E0E8EFF8E002C005900D92E4
:10007000A632B107D9F711E0A6E2B1E001C01D92A6
:10008000A632B107E1F70E948A030C947A040C941B
:10009000000085BB85B38C5F85BB8AEF90E001973C
:1000A000F1F785B3845085BB08950F931F938C019E
:1000B000807F90700E94490084E0000F111F8A9594
:1000C000E1F7C80190700E9449008AEF90E0019723
:1000D000F1F71F910F91089582E090E00E94550082
:1000E00088E290E00E94550086E090E00E94550072
:1000F0008CE090E00E945500089585BB85B38B5F2E
:1001000085BB8AEF90E00197F1F785B3845085BBFA
:1001100008950F931F938C01807F90700E947D0043
:1001200094E0000F111F9A95E1F7C80190700E94AA
:100130007D008AEF90E00197F1F71F910F910895EC
:100140000F931F93CF93DF93182F092FCB010E949A
:100150005500212F302FC901EC0103C090E00E940F
:10016000890089918823D1F7DF91CF911F910F9159
:100170000895CF93DF93EC01CB010E9455002097A7
:10018000C9F480E390E00E948900C0E0D0E012C092
:1001900084E090E00E945500CE016AE070E00E9489
:1001A0005304C0960E948900CE016AE070E00E946C
:1001B0005304EB01209761F7DF91CF9108950F93DE
:1001C0001F938C0187EC90E00E945500C8016AE003
:1001D00070E00E946704CB01C0960E948900C801AC
:1001E0006AE070E00E946704C0960E9489008AE37A
:1001F00090E00E9489001F910F9108950F931F9323
:100200008C0184EC90E00E945500C8016AE070E027
:100210000E946704CB01C0960E948900C8016AE071
:1002200070E00E946704C0960E9489008AE390E013
:100230000E9489001F910F91089520E030E0AEE107
:10024000FFE742EE54E060E1EFEB7FEDA8BBF2BBCD
:10025000CA010197F1F768BBE2BBCA010197F1F748
:1002600068BB72BBCA010197F1F72F5F3F4F223382
:10027000310561F720E030E06EE1AFED42EE54E091
:10028000F2E1EFEE77EF68BBA2BBCA010197F1F78D
:10029000F8BBE2BBCA010197F1F768BB72BBCA01A8
:1002A0000197F1F72F5F3F4F2233310561F720E0CF
:1002B00030E066E1A7EF42EE54E0FBEFEEE17DEFC8
:1002C00068BBA2BBCA010197F1F768BBF2BBCA01C8
:1002D0000197F1F7E8BB72BBCA010197F1F72F5FF5
:1002E0003F4F2233310561F720E030E062E0ABEFB1
:1002F00042EE54E0FEE1EDEF7EEF68BBA2BBCA0127
:100300000197F1F7F8BBE2BBCA010197F1F768BBAF
:1003100072BBCA010197F1F72F5F3F4F22333105BE
:1003200061F708958BE38CBF20E533ECC901019799
:10033000F1F784E38CBFC9010197F1F79EE29CBFFE
:10034000F9013197F1F78AE28CBFF9013197F1F7A2
:1003500086E28CBFF9013197F1F782E28CBFF90197
:100360003197F1F78EE18CBFF9013197F1F79CBF1E
:10037000C9010197F1F708958AE183BF88E087BB3F
:100380000895AF92BF92CF92DF92EF92FF920F93B8
:100390001F93CF93DF938130910509F059C081E01D
:1003A00090E00E9455005CE1E52EF12C0AE010E09F
:1003B00049E1C42ED12CC0E0D0E089B3833041F4B0
:1003C00089B38330E9F384EC99E00197F1F797C1A1
:1003D00061E870E080911C0190911D010E94A000D5
:1003E000C8010E94FE00C7010E94DF008AEC90E075
:1003F0000E945500CE016AE070E00E946704CB01C4
:10040000C0960E948900CE016AE070E00E946704F5
:10041000C0960E94890080E197E2F6013197F1F7DA
:100420000197D9F72196CC33D10539F60894E11C10
:10043000F11C8CE3E816F10424F00F5F1F4FEE244B
:10044000FF24083111050CF4B6CF00E010E0B3CF63
:100450008330910509F08BC081E088BB8FE782BBB8
:1004600081E090E00E94550060E870E080E690E056
:100470000E94A00068E870E089E690E00E94A00079
:1004800060EC70E082E790E00E94A00068EC70E011
:100490008BE790E00E94A00080E593EC29E130E03A
:1004A000F9013197F1F70197D9F7C1E0D0E0E0E821
:1004B000F0E000E513EC89B3882391F014C0CF017C
:1004C00062E070E00E946704FB01C8BB862F809544
:1004D00082BBC8010197F1F7161617060CF03DC054
:1004E00089B3882361F389B3813089F40BC0CC0FC1
:1004F000DD1FC8BB22BBC8010197F1F7C138D10588
:100500001CF02BC02E2F209589B3813081F389B345
:10051000823081F40CC0EE0FFF1FC8BB8E2F809578
:1005200082BBC8010197F1F7E138F105B4F489B352
:10053000823089F389B3833009F0BDCF12C0CE0178
:1005400062E070E00E946704EB0168BB42BBC80137
:100550000197F1F71616170634F00E941D0112BA22
:10056000A3C04E2F409589B3833049F3A4CF843084
:10057000910509F07DC081E090E00E94550062E89D
:1005800070E084E890E00E94A00041E094EDA92E84
:1005900090E3B92E48BBC1E0D0E0E0E8F0E000E82D
:1005A00010E081E0E82EF12CCC24DD2489B38330E7
:1005B00089F489B38330E9F318BA12BAA0C08E2F38
:1005C000809582BBC5010197F1F7EE15FF0529F073
:1005D000F595E795EE15FF0594F7C114D10451F494
:1005E00007C0C8BBC5010197F1F7C017D10779F063
:1005F000CC0FDD1F0C171D07A4F709C08E2F8095A7
:1006000082BBC5010197F1F7E017F10729F0EE0F62
:10061000FF1F0E171F0794F7CE0162E070E00E94E3
:100620006704EB01EE0CFF1C09C0C8BBC5010197B4
:10063000F1F7CE15DF0529F0D595C795CE15DF0565
:10064000A4F70894C11CD11C84E0C816D10409F495
:10065000A1CFCF0162E070E00E946704FB01CC0FE4
:10066000DD1FC80162E070E00E9467048B019ECF2D
:1006700085309105D9F481E090E00E9455008AE12F
:1006800083BF88E087BB61E870E084E890E00E9467
:10069000A0000E94920189B38330D9F789B38330D7
:1006A000E9F313BE8FEF87BB18BA29C0069739F557
:1006B00081E090E00E94550024E0E22EFF24F394B4
:1006C00005E01AE060E870E081E990E00E94A00097
:1006D00060EC70E08AE990E00E94A00089B381306C
:1006E00009F4E8BA89B3823009F4F8BA89B38330DF
:1006F00009F408BB89B3882329F718BBE3CFDF913E
:10070000CF911F910F91FF90EF90DF90CF90BF900E
:10071000AF9008957F928F929F92AF92BF92CF92A7
:10072000DF92EF92FF920F931F93CF93DF938FEFA0
:1007300081BB87BB84BB8CEF8ABB0E946C0081E0CD
:1007400090E00E945500B4EC8B2EB9E09B2EA0E502
:10075000AA2EA3ECBA2EF6EA7F2EE8E9CE2EEAE323
:10076000DE2E81E090E00E94550062E870E080910A
:10077000DB009091DC000E94A00089B38330E9F790
:1007800089B38330E9F301E010E072E0E72EF12C49
:10079000083011051CF001E010E005C0101611062C
:1007A00014F007E010E00E151F05A1F081E090E0C5
:1007B0000E945500F801EE0FFF1FE552FF4F63E85E
:1007C00070E0808191810E94A00060E870E0C80123
:1007D0000E94B90089B3833011F0780114C089B345
:1007E0008330E9F3C4010197F1F70730110509F4EB
:1007F000B8CFC8010E94C101C5010197F1F7780186
:100800000894E11CF11C89B3813021F520E030E02F
:1008100089B38130E9F389B3823099F489B38230A6
:10082000E9F3C0E0D0E08AE190E00E945500C60103
:100830000197F1F72196CE30D105A9F70F5F1F4F31
:1008400009C02F5F3F4F872D8A95F1F783E0283E3F
:100850003807F1F689B3823009F09ACF20E030E012
:1008600089B38230E9F389B3813099F489B3813057
:10087000E9F3C0E0D0E08CE190E00E945500C601B1
:100880000197F1F72196CE30D105A9F7015010401C
:100890007FCF2F5F3F4F872D8A95F1F783E0283E6A
:1008A0003807F1F675CFAA1BBB1B51E107C0AA1F81
:1008B000BB1FA617B70710F0A61BB70B881F991F01
:1008C0005A95A9F780959095BC01CD01089597FBA5
:1008D000092E07260AD077FD04D0E5DF06D00020D8
:1008E0001AF4709561957F4F0895F6F7909581956C
:0808F0009F4F0895F894FFCF1B
:1008F8003030204C20322052003031205420322019
:100908004200313020522032204C00313120422028
:1009180032205400546F75636820322053746F700E
:100928000046726F6E742D30300053746F702D3125
:1009380031004D656E75004F7267616E697A657238
:1009480000546F6F6C730047616D6573004C444DC4
:10095800205061747465726E73004D65646961003E
:10096800526F626F74004261636B00A200A700B10E
:1009780000B700BD00CA00D000D60000446967690E
:1009880074616C5F436C6F636B0053746F705F5777
:1009980061746368004C444D5F47616D6500537432
:1009A800617274004D7573696300EB00EC00FA0026
:0609B80005010E0114010F
:00000001FF
