:100000000C942A000C9447000C9447000C94470071
:100010000C9447000C9447000C9447000C94470044
:100020000C9447000C9447000C9447000C94470034
:100030000C9447000C9447000C9447000C94470024
:100040000C9447000C9447000C9447000C94470014
:100050000C94470011241FBECFE5D4E0DEBFCDBF16
:1000600010E0A0E6B0E0EEE6F1E002C005900D92EF
:10007000A036B107D9F710E0A0E6B0E001C01D92AC
:10008000A036B107E1F70E9449000C94B5000C942A
:1000900000000F931F93CF93DF938FEF87BB81BB3C
:1000A00080E890E0C2E0D0E008EA11E601C02196C5
:1000B000C0FD15C061E070E041E050E028E030E0B4
:1000C000A82FA09568BB440F551F640F751FA2BBD6
:1000D000F8013197F1F721503040A1F714C060E8E2
:1000E00070E040E850E028E030E0A82FA09548BB41
:1000F00075956795460F571FA2BBF8013197F1F729
:1001000021503040A1F762E070E00E948E00CB01E8
:100110001616170664F280E890E0C9CF97FB092E07
:1001200007260AD077FD04D00CD006D000201AF4A0
:10013000709561957F4F0895F6F7909581959F4F43
:100140000895AA1BBB1B51E107C0AA1FBB1FA6171E
:10015000B70710F0A61BB70B881F991F5A95A9F770
:0E01600080959095BC01CD010895F894FFCFD5
:00000001FF
